:040000008A155B2BD7
:10000800FF00030E8301031796000A0895008A0172
:1000180070080313A1007108A0000408A2000C1CBA
:100028002F280C100B308F00DF308E002F08013E78
:10003800F00000300318013E3007F1007008AF00EF
:100048007108B00000303006031D2C2804302F063C
:10005800031D2F2877278C1C4B283508013EF000FC
:1000680000300318013E3607F1007008B50071082A
:10007800B6008C1000303606031D4428643035065F
:10008800031D4B288A15F8228A11B501B6010B1DEC
:10009800DB285B08013EF00000300318013E5C07D6
:1000A800F1007008DB007108DC000B113F308100A3
:1000B80080305C06F00080307002031D6528033034
:1000C8005B02031CDB28861A6E28DB01DC01831621
:1000D8008116DB2883125B08013EF000003003180C
:1000E800013E5C07F1007008DB007108DC0000309D
:1000F8005C06031D812850305B06031DDB28003099
:100108003A06031D89280A303906031DAC28003039
:1001180083166906031D922800306806031D9B2874
:100128003B3083120317AB008A1533238A11003042
:10013800831603136906031DA32801306806031DEF
:10014800AC28B73083120317AB008A15D0228A1166
:100158008312003003133A06031DB42814303906FD
:10016800031DD728003083166906031DBD280030FB
:100178006806031DC628C43083120317AB008A150E
:1001880033238A110030831603136906031DCE2812
:1001980001306806031DD728BB3083120317AB0054
:1001A8008A15D0228A1183120313DB01DC010B1C90
:1001B800322A0B108316811E322A81128312061EE0
:1001C800532900303A06031DEB2800303906031D79
:1001D80001290A30B9000030BA00831639088312A1
:1001E800BB0083163A088312BC006C088316B7005C
:1001F80083126D088316B8000C29003083123A0662
:10020800031D08290A303906031D0C29B901BA0152
:10021800831200303A06031D132902303906031DE4
:100228001A291430B9000030BA003F2900303A06C4
:10023800031D202914303906031D3F290030831679
:100248006906031D2929003068060319342900307E
:100258006906031D312901306806031934293F292D
:10026800C401C501BB01BC018312D201D301023014
:10027800B9000030BA00831200303A06031D46293F
:100288001E303906031D5229D201D3018316C40139
:10029800C501BB01BC018312B901BA01322A861E0D
:1002A800BC2900303A06031D5B2901303906031DBD
:1002B8006729831681128312121964291215672976
:1002C800121D6729121100303A06031D6D290A30E4
:1002D8003906031D9029003083166906031D762907
:1002E80000306806031D7F293B3083120317AB00DB
:1002F8008A1533238A110030831603136906031DF8
:10030800872901306806031D9029B7308312031727
:10031800AB008A15D0228A118312003003133A06E3
:10032800031D982914303906031DBB290030831694
:100338006906031DA12900306806031DAA29C430D7
:1003480083120317AB008A1533238A1100308316F2
:1003580003136906031DB22901306806031DBB2972
:10036800BB3083120317AB008A15D0228A11322AB8
:100378000317061FF129003003133A06031DC62987
:100388000A3039060319D12900303A06031DCE294F
:10039800143039060319D129DE2983166808013E6D
:1003A800F00000300318013E6907F1007008E8000A
:1003B8007108E900003083123A06031DE52901306F
:1003C8003906031DF029B301B401B101B201B70127
:1003D800B801B501B6011211322A0313861F322A59
:1003E8003908013EF00000300318013E3A07F100D9
:1003F8007008B9007108BA008030F00080303A0601
:100408007002031D092A39080A3C0318192A80308A
:100418003A06F00080307002031D142A14303902A5
:100428000318192AB901BA01282A8030F00080304F
:100438003A067002031D222A3908143C0318282A98
:100448000230B9000030BA0000303A06031D2E2AE7
:1004580003303906031D322AB901BA018312031386
:100468002108F0002008F10022088400031715086D
:0C0478008A00160E8300FF0E7F0E0900A4
:060484000000000008006A
:0E048A00213083120313FD00FD0B492A0800E8
:100498000F3083120313FC004730FD00FD0B522A76
:0A04A800FC0B522A000000000800BF
:1004B200710DF80DF90D7408F8027508031C750F1B
:1004C200F902F00DF10D0F30FC00710DF80DF90D70
:1004D2007408701C722AF8027508031C750FF90261
:1004E200772AF80775080318750FF907F00DF10D53
:1004F200FC0B662A7018832A7408F807750803181B
:08050200750FF9070000080065
:10050A0083120317AA1B8C2A031388118E2A03133A
:10051A00881503172A1B942A03130811962A031312
:10052A0008150317AA1A9C2A031388109E2A031374
:10053A00881403172A1AA42A03130810A62A0313D5
:10054A00081403171218AC2A03130816AE2A031349
:10055A0008128816422288120317AA19B72A031307
:10056A008811B92A0313881503172A19BF2A0313F6
:10057A000811C12A031308150317AA18C72A031357
:10058A008810C92A0313881403172A18CF2A0313B9
:10059A000810D12A0313081403171218D72A0313B1
:1005AA000816D92A0313081288164222881203173A
:0C05BA00121CE12A4C22E22A4522080013
:1005C600F52A803083120317A700082BC030A70036
:1005D600082B9430A700082BD430A700082B8030B6
:1005E600A700082B831203172708013A0319E42AE8
:1005F6002708023A0319E92A2708033A0319EC2ABD
:100606002708043A0319EF2AF22A2803F0002708DC
:10061600F0077008A70012147008AA0085220317B5
:0E06260012102908AA008522031712140800DA
:10063400831203137408003A031D292B7508003A2A
:10064400031D292BFF30F0007F30F100822B831231
:100654000313FD01F901F801710870040319003452
:1006640071087506FA00FA1BFD09FB01F51F3F2B03
:10067400F409F509F40A0319F50AF11F462BF009E8
:10068400F109F00A0319F10A71087504FA00FA1B5A
:100694005B2B59227B186E2BFD1F0034F009F109E6
:1006A400F00A0319F10AF809F909F80A0319F90A11
:1006B4000034F51F6A2BF11B662B7108F9007008D2
:1006C400F800F101F0014E2BF101F001F00A0034C1
:1006D400F109F009FB0A4B2BF80A0319F90A74080B
:1006E4007802031D4E2B75087902031D4E2BF90168
:1006F400F801F00A0319F10AF11F4E2B0000FF3430
:020704000800EB
:100706008312031712102708AA0085220317121452
:020716000800D9
:100718000A3083120313F4000030F50003171F0892
:10072800F0002008F1001A233030F00703172508DD
:10073800840070088000250AA6000A30F400003002
:10074800F5001F08F0002008F1001A237808F000CF
:100758007908F1003030F007031726088400700884
:1007680080000230250784003A30800003302507D6
:10077800A6000A30F4000030F5002108F000220835
:10078800F1001A233030F007031726088400700898
:10079800800004302507A6000A30F4000030F50078
:1007A8002108F0002208F1001A237808F0007908DF
:1007B800F1003030F0070317260884007008800025
:0A07C80005302507840080010800B9
:1007D200FB2B8030831203179F000E2CC0309F002A
:1007E2000E2C94309F000E2CD4309F000E2C8030A3
:1007F2009F000E2C831203171F08013A0319EA2BDC
:100802001F08023A0319EF2B1F08033A0319F22BB0
:100812001F08043A0319F52BF82B2003F0001F08D8
:10082200F00770089F007008AA00852203171210B3
:10083200A20122082107840000080319282C22089B
:10084200210784000008A7008323A20A1A2C12148D
:0208520008009C
:100854000A3083120313F4000030F5003308F0006B
:100864003408F1001A23303070078316D100710860
:100874000318013ED2000A30F4000030F500831260
:100884003308F0003408F1001A237808F0007908DE
:10089400F100303070078316D30071080318013E4D
:1008A400D400023083120317A7000130A800831676
:1008B4000313510883120317A900E3220230A7008F
:1008C4000230A80083160313530883120317A900E8
:1008D400E3220230A7000330A8003A30A900E32243
:1008E4000A30F4000030F50003133108F000320838
:1008F400F1001A23303070078316EE0071080318D4
:10090400013EEF000A30F4000030F5008312310894
:10091400F0003208F1001A237808F0007908F10099
:10092400303070078316EA0071080318013EEB00AB
:10093400023083120317A7000430A80083160313A0
:100944006E0883120317A900E3220230A7000530C2
:10095400A800831603136A0883120317A900E3226D
:100964000230A7000630A8003A30A900E3220A307A
:10097400F4000030F50003133708F0003808F100E4
:100984001A23303070078316D50071080318013E0E
:10099400D6000A30F4000030F50083123708F00066
:1009A4003808F1001A237808F0007908F100303093
:1009B40070078316D70071080318013ED80002306F
:1009C40083120317A7000730A800831603135508E2
:1009D40083120317A900E3220230A7000830A800FD
:1009E40083160313570883120317A900E322023066
:1009F400A7000930A8003A30A900E3220230A7007A
:100A04000A30A8003030A900E3220230A7000B30DE
:0A0A1400A8003030A900E32208001A
:100A1E000030831203133006031D172D02302F06EC
:100A2E00031D282D02300317A7001F08A800203031
:100A3E00A900E3220230A7002108A8002030A90057
:100A4E00E322003003133006031D2F2D00302F0636
:100A5E00031D5A2D02300317A7001F08A8000A30E5
:100A6E00F4000030F5002308F0002408F1001A23EA
:100A7E00303070070317A900E3220230A7002108C7
:100A8E00A8000A30F4000030F5002308F000240816
:100A9E00F1001A237808F0007908F1003030700761
:080AAE000317A900E322080070
:0E0AB6008312031718088A0017088200080030
:100AC4008316031345083A06031D6A2D39084406A4
:100AD400031D7B2D3C0883126D06031D742D6C08C9
:100AE40083163B06031D7B2D1E308312B900003094
:040AF400BA0008003C
:100AF8000030831203135306031D842D0130520660
:100B0800031DBD2D01300317AA00852201300317EC
:100B18009F000130A0003D30A100E9238316031394
:100B28004408831203179F00831603134508831292
:100B38000317A000831603133B0883120317A100B1
:100B4800831603133C0883120317A200A301A40110
:100B5800D930A5008C2301309F000730A000D93080
:100B6800A100E92302309F000130A0004430A10019
:100B7800E923003003135306031DC42D0030520629
:100B8800031DD92D01300317AA0085220130031750
:100B98009F000130A0005D30A100E92302309F00D2
:100BA8000130A000A030A100E923003003133A0669
:100BB800031DE02D02303906031DE32DD92D080051
:100BC8008312031799019A019B019C019D019E01C3
:100BD8000130AA008522013003179F000130A000D0
:100BE800C630A100E9230313B501B601B701B80166
:100BF800B101B201B301B4012A24003003133A064B
:100C0800031D082E01303906031D212F003034063C
:100C1800031D102E00303306031D2B2E0030320624
:100C2800031D182E00303106031D2B2E0030380608
:100C3800031D202E00303706031D2B2E00303606EC
:100C4800031D282E00303506031D2B2E2A240313DE
:100C5800360803171A06031D342E19080313350620
:100C680003197A2E03130A30F4000030F500350812
:100C7800F0003608F1001A2330307007031790008F
:100C880071080318013E91000A30F4000030F500A5
:100C980003133508F0003608F1001A237808F0002D
:100CA8007908F100303070078316EC0071080318DA
:100CB800013EED00023083120317A7000A30A80096
:100CC8001008A900E3220230A7000B30A800831601
:100CD80003136C0883120317A900E32203133508D2
:100CE800031799000313360803179A0003133208F1
:100CF80003171E06031D832E1D080313310603194F
:100D0800CD2E03130A30F4000030F5003108F0004E
:100D18003208F1001A23303070078316EE0071088C
:100D28000318013EEF000A30F4000030F50083128A
:100D38003108F0003208F1001A237808F000790829
:100D4800F100303070078316EA0071080318013E7D
:100D5800EB00023083120317A7000430A8008316A3
:100D680003136E0883120317A900E3220230A700B9
:100D78000530A800831603136A0883120317A90015
:100D8800E3220313310803179D00031332080317E6
:100D98009E000313380803171C06031DD62E1B08D4
:100DA800031337060319202F03130A30F400003009
:100DB800F5003708F0003808F1001A2330307007C2
:100DC8008316D50071080318013ED6000A30F400D6
:100DD8000030F50083123708F0003808F1001A23B4
:100DE8007808F0007908F100303070078316D700D2
:100DF80071080318013ED800023083120317A700B8
:100E08000730A80083160313550883120317A90097
:100E1800E3220230A7000830A800831603135708FE
:100E280083120317A900E3220313370803179B0053
:100E38000313380803179C00012E03131211B50180
:040E4800B6010800E7
:100E4C008312031307160F308316E8000030E900F5
:100E5C00013083120317AA008522013003179F006B
:100E6C000130A000BD30A100E92383160313440810
:100E7C00831203179F00831603134508831203176D
:100E8C00A000831603133B0883120317A1008316DB
:100E9C0003133C0883120317A200A301A401D93049
:100EAC00A5008C2302309F000130A000D930A10096
:100EBC00E923003003133A06031D662F1E30390652
:0A0ECC00031D692F5F2F07120800B5
:100ED6005B258A110A128000840A970A0319980A68
:080EE600F003031D6B2F08004F
:100EEE000030831203133A06031D7F2F0A30390692
:100EFE000319C62F6E08013EF00000300318013EA4
:100F0E006F07F1007008EE007108EF0000306F06F9
:100F1E00031D932F3C306E06031DAC2F6C08013E53
:100F2E00F00000300318013E6D07F1007008EC0070
:100F3E007108ED00EE01EF0100305306031DA92FDD
:100F4E0001305206031DAC2F6225003083120313AD
:100F5E006D06031DB42F3C306C06031DC62F831681
:100F6E003908013EF00000300318013E3A07F10047
:100F7E007008B9007108BA008312EC01ED01AF01DF
:040F8E00B0010800A6
:1010000083160313E801E901013083120317AA00D4
:101010008A1185228A15013003179F000130A00034
:10102000AB30A1008A11E9238A1583160313440803
:10103000831203179F0083160313450883120317B7
:10104000A000831603133B0883120317A100831625
:1010500003133C0883120317A200A301A401D93093
:10106000A5008A118C238A1502309F000130A00050
:10107000D930A1008A11E9238A15003083160313A1
:101080006906031D452800306806031D69280030E5
:1010900083123A06031D4E2814303906031D6928B1
:1010A000013003179F000030A0000230A100003083
:1010B000A20083160313440883120317A3008316A8
:1010C0000313450883120317A4008A110F258A15FC
:1010D0003D28023083120317A7000130A8000A3010
:1010E000F4000030F500831603134408F0004508AF
:1010F000F1008A111A238A15303070070317A900EE
:101100008A11E3228A150230A7000230A8000A30B3
:10111000F4000030F500831603134408F00045087E
:10112000F1008A111A238A157808F0007908F10075
:10113000303070070317A9008A11E3228A150030A6
:10114000831603136906031DA72801306806031DD3
:10115000CB28003083123A06031DB028143039061C
:10116000031DCB28043003179F000030A00005307A
:10117000A1000030A200831603133B08831203175B
:10118000A300831603133C0883120317A4008A11DB
:101190000F258A159F280030831603136906031D47
:1011A000D32802306806031DE22802308312B900FA
:1011B0000030BA008316E801E90101308312D20041
:0611C0000030D30008001E
:1011C6008316031388120812081088100811881154
:1011D60083128812081288110811881008108A11C3
:1011E6004C228A158A114C228A158A114C228A159C
:1011F6008814081488168A1142228A1588128A11C0
:101206004C228A1588168A1142228A1588128A115A
:101216004C228A1588168A1142228A1588128A114A
:101226004C228A15081088168A1142228A158812BD
:101236008A114C228A1588168A1142228A1588122A
:101246008810881588168A1142228A1588128A11F2
:101256004C228A158811081488168A1142228A158A
:101266008812081088168A1142228A1588128A1155
:101276004C228A1588168A1142228A158812081469
:1012860088168A1142228A1588128A114C228A15DA
:10129600081088168A1142228A15881288150815A0
:1012A6008814081488168A1142228A1588128A110F
:0A12B6004C228A15031712140800D9
:1012C00083160313E801E901013083120317AA0012
:1012D0008A1185228A15013003179F000130A00072
:1012E0002330A1008A11E9238A1502309F000130C2
:1012F000A000D930A1008A11E9238A150030831695
:1013000003136906031D862900306806031DA629FC
:10131000003083123A06031D8F290A303906031D57
:10132000A629013003179F000030A0000230A10061
:101330000030A20003133B080317A30003133C086B
:101340000317A4008A110F258A157E290230831203
:101350000317A7000130A8000A30F4000030F500A0
:1013600003133B08F0003C08F1008A111A238A1588
:10137000303070070317A9008A11E3228A15023062
:10138000A7000230A8000A30F4000030F500031373
:101390003B08F0003C08F1008A111A238A157808EE
:1013A000F0007908F100303070070317A9008A11A6
:1013B000E3228A150030831603136906031DE22910
:1013C00001306806031D062A003083123A06031D09
:1013D000EB290A303906031D062A043003179F0043
:1013E0000030A0000530A1000030A20083160313D6
:1013F000370883120317A3008316031338088312D8
:101400000317A4008A110F258A15DA2900308316E4
:1014100003136906031D0E2A02306806031D272ADE
:1014200083123B088316B90083123C088316BA0066
:1014300037088312EC00831638088312ED00B901D7
:10144000BA018316E801E9018312EE01EF010800F9
:10145000013083120317AA008A1185228A150130F0
:1014600003179F000130A0005430A1008A11E92326
:101470008A15831603133908831203179F008316F6
:1014800003133A0883120317A00003136C08031711
:10149000A10003136D080317A20003136E080317BE
:1014A000A30003136F080317A400D930A5008A1105
:1014B0008C238A1502309F000130A000D930A10092
:1014C0008A11E9238A15003003133A06031D6A2A9C
:1014D00000303906031DCF2A00303006031D722A62
:1014E00002302F06031D7E2A02300317A7000330A7
:1014F000A8002030A9008A11E3228A1500300313C6
:101500003006031D852A00302F06031DCE2A023027
:101510000317A7000330A8003A30A9008A11E3227C
:101520008A1503136D0803171406031D9A2A13085E
:1015300003136C060319CE2A83160313390883128A
:1015400003179F00831603133A0883120317A000A2
:1015500003136C080317A10003136D080317A200FF
:1015600003136E080317A30003136F080317A400E7
:10157000D930A5008A118C238A1502309F000130D2
:10158000A000D930A1008A11E9238A1503136C0841
:101590000317930003136D0803179400632A0800D0
:1015A000831203172B0884000008F000840A000847
:1015B000F100F00A0319F10A2B088400700880007A
:1015C0007108840A80002B0884000008F100840A56
:1015D0000008F20000307206031DF02A3C3071064C
:1015E000031DF72A2B0884008001840A800108006B
:1015F000831203133708013EF00000300318013E48
:101600003807F1007008B7007108B80000303806DC
:10161000031D0C2B3C303706031D1C2B3108013EEB
:10162000F00000300318013E3207F1007008B100ED
:101630007108B200B701B80100303206031D222B39
:101640003C303106031D322B3308013EF0000030E0
:101650000318013E3407F1007008B3007108B400AC
:06166000B101B201080017
:10166600831203172B0884000008F000840A000880
:10167600F100F00A0319F10A2B08840070088000B3
:101686007108840A80002B0884000008F100840A8F
:101696000008F20000307206031D532B1830710645
:1016A600031D5A2B2B0884008001840A8001080040
:1016B6003424831603131C159C141C14E3200C30CD
:1016C600AA008A1185228A15FF3083168600983073
:1016D6008B043130831290008B170B1783160C1472
:1016E60083120C100B308F00DF308E0083168116AC
:1016F600011281110114811401158B160B113F3053
:1017060083128100483092041215921412107C3014
:101716008316920083128C1083168C148312121176
:1017260083160712831207126330031793000030E3
:101736009400831603130712B22B2822E42B602190
:10174600E42B8A11E4258A15E42B8A117C258A1557
:10175600E42B0020E42B8A1126278A15E42B83121A
:10176600031300303A06031DBA2B0030390603195D
:10177600A02B00303A06031DC22B0A303906031986
:10178600A22B00303A06031DCA2B01303906031975
:10179600A42B00303A06031DD22B0230390603195A
:1017A600A82B00303A06031DDA2B1430390603192C
:1017B600AC2B00303A06031DE22B1E303906031906
:0617C600AE2B9F2BE52B6A
:1018680023308400493083120313F000EB30031750
:1018780097000B3098008A116B278A15A0308400D6
:10188800173083120313F000E33003179700073073
:1018980098008A116B278A156C30840004308312F3
:1018A8000313F000FA3003179700073098008A11E5
:1018B8006B278A15B73084001A3083120313F0009F
:1018C800C93003179700073098008A116B278A15CB
:0218D800080006
:040F920000340034F3
:040F960001340034EE
:040F9A0000340034EB
:0E0F9E0041344C34413452344D34213400344B
:040FAC0000340034D9
:100FB000533474346F34703477346134743463343C
:060FC00068343A340034ED
:100FC60050347234653473347334203445344434C5
:060FD600493454340034DC
:100FDC004534643469347434203441346C346134B1
:080FEC0072346D343A34003414
:040FF400023400348F
:040FF8002D34003460
:1017D6004534643469347434203443346C346F349F
:0817E60063346B343A34003423
:0417EE00003400348F
:0417F200003400348B
:0417F6000034003487
:0417FA000034003483
:0417FE00003400347F
:04180200003400347A
:041806000034003476
:0E180A0041346C34613472346D343A3400343D
:1018180050347234653473347334203474346F3410
:0C182800203445346434693474340034D6
:041834000034003448
:0E18380043346C346F3463346B343A34003410
:041846000034003436
:10184A0041346C34613472346D3420344E346F3424
:0E185A00743420345334653474343A3400341A
:02400E004A2F37
:00000001FF
